:1000000012C043C083C0C4C029C028C027C026C0B6
:1000100025C024C023C022C021C020C01FC01EC0D4
:100020001DC0FFC01BC011241FBECFE5D4E0DEBF42
:10003000CDBF10E0A0E6B0E0EAEBFAE002C0059028
:100040000D92A237B107D9F720E0A2E7B0E001C0D6
:100050001D92AB39B207E1F70AD32DC5D1CF81B3D9
:10006000837F81BB82B38C6082BB85B78E7F85BF67
:1000700085B7826085BF85B78B7F85BF85B7886070
:1000800085BF8BB780688BBF08951F920F920FB604
:100090000F9211242F938F939F93AF93BF938091CF
:1000A000880090918900A0918A00B0918B00019600
:1000B000A11DB11D8093880090938900A0938A00B0
:1000C000B0938B008091880090918900A0918A0064
:1000D000B0918B0080349244AF40B10568F010922B
:1000E00088001092890010928A0010928B008091F3
:1000F00087008F5F80938700BF91AF919F918F9111
:100100002F910F900FBE0F901F9018951F920F9276
:100110000FB60F9211248F93809185008130B9F42E
:1001200085B78B7F85BF85B7886085BF10928500B6
:10013000109273008BB78F7B8BBF89B78F7789BF86
:1001400085B5887F85BD8EB5887F8EBD1BC08091AB
:100150008500811117C085B78C6085BF81E08093D1
:100160008500109273008BB780648BBF89B780685D
:1001700089BF8EB587608EBD85B5866085BD85B526
:100180008E7F85BD8F910F900FBE0F901F90189599
:100190001F920F920FB60F9211242F933F938F93BC
:1001A0009F93AF93BF9314BC809186008F5F809321
:1001B0008600809186008D3749F5809172008130EC
:1001C000D9F42CB53DB580918C0090918D00A09113
:1001D0008E00B0918F00820F931FA11DB11D8093DF
:1001E0008C0090938D00A0938E00B0938F001DBC67
:1001F0001CBC1092720005C0811103C081E0809385
:1002000072001092860081E080937300BF91AF91DD
:100210009F918F913F912F910F900FBE0F901F9044
:1002200018951F920F920FB60F9211242F938F9350
:100230009F93EF93FF9381B1883159F08832A1F0F9
:10024000883009F05DC082EA83B986B7856C86BFC5
:100250005AC080917B0090917C0093B910927400F9
:1002600086B7856C86BF4FC0809174008C3049F58D
:100270001092740080917B0090917C000B9690937B
:100280007C0080937B008091790090917A000196A8
:1002900090937A00809379008091790090917A0010
:1002A0008437914041F410927A00109279001092B4
:1002B0007C0010927B0084E586BF81E08093600023
:1002C00022C08091740081110BC080917B009091BD
:1002D0007C0083B9809174008F5F809374000CC0A0
:1002E000E0917400F0E0E157FF4F808183B9809185
:1002F00074008F5F8093740086B7856C86BF03C0DF
:1003000086B7806986BFFF91EF919F918F912F9162
:100310000F900FBE0F901F90189595B3907F282FC8
:1003200022952F70922B95BBC09A9AE69A95F1F779
:1003300000C0C0989AE69A95F1F700C095B38F7007
:10034000907F892B85BBC09A8AE68A95F1F700C019
:10035000C0989AE69A95F1F700C0089584B38F602B
:1003600084BB87B3836087BB8FE39CE90197F1F778
:1003700000C00000C19882E0D0DF8FE99FE00197C4
:10038000F1F700C0000088E2C8DF88E0C6DF81E046
:10039000C4DF8FE99FE00197F1F700C0000086E01D
:1003A000BCDF8CE0BADFC19A9FEF29EF80E091506B
:1003B00020408040E1F700C000000895C198ADDF03
:1003C000C19A0895CF93DF93EC018881882329F0A7
:1003D0002196A3DF89918111FCCFDF91CF91089500
:1003E0004F925F926F927F928F929F92AF92BF9245
:1003F000CF92DF92EF92FF9280E8E0DF81E690E01B
:10040000E1DF609181007091820080918300909182
:10041000840020E836E948E950E02BD30F2EF0E4C1
:100420004F2EF2E45F2EFFE06F2E712CF02DA30112
:1004300092011FD380E3820F70DF60918100709181
:1004400082008091830090918400A301920111D3D6
:1004500020EA36E841E050E00CD380E3820F5DDF14
:10046000609181007091820080918300909184005E
:1004700020EA36E841E050E0FCD220E137E240E0FB
:1004800050E0F7D280E3820F48DF609181007091E5
:100490008200809183009091840020E137E240E067
:1004A00050E0E7D228EE33E040E050E0E2D280E3D3
:1004B000820F33DF8EE231DF609181007091820024
:1004C000809183009091840028EE33E040E050E07A
:1004D000D0D20F2EF4E68F2E912CA12CB12CF02D22
:1004E000A5019401C6D280E3820F17DF60918100DD
:1004F000709182008091830090918400A501940105
:10050000B8D20F2EFAE0CF2ED12CE12CF12CF02D09
:10051000A7019601AED280E3820FFFDE60918100D9
:10052000709182008091830090918400A7019601D0
:10053000A0D280E3860FF1DE8BE6EFDE8DE6EDDE06
:1005400080EC3CDF87E690E03DDF60917D007091BC
:100550007E0080917F009091800020E836E948E994
:1005600050E087D2A301920184D280E3820FD5DECE
:1005700060917D0070917E0080917F00909180005D
:10058000A301920176D220EA36E841E050E071D230
:1005900080E3820FC2DE60917D0070917E008091C9
:1005A0007F009091800020EA36E841E050E061D27F
:1005B00020E137E240E050E05CD280E3820FADDE24
:1005C00060917D0070917E0080917F00909180000D
:1005D00020E137E240E050E04CD228EE33E040E04A
:1005E00050E047D280E3820F98DE60917D007091E9
:1005F0007E0080917F009091800028EE33E040E003
:1006000050E037D2A501940134D280E3820F85DE19
:1006100060917D0070917E0080917F0090918000BC
:10062000A501940126D2A701960123D280E3820F6F
:1006300074DE60917D0070917E0080917F009091CA
:100640008000A701960115D280E3860F66DE8DE655
:1006500090E0B8DEFF90EF90DF90CF90BF90AF902A
:100660009F908F907F906F905F904F90089576DE6F
:10067000B7DEF5DC89EF83BD14BC1DBC1CBC109239
:1006800088001092890010928A0010928B001092BC
:100690008C0010928D0010928E0010928F0080E2DC
:1006A00080B981B18C7F81B97894C0E9D0E0809124
:1006B00085008823E1F38091880090918900A091C2
:1006C0008A00B0918B008093810090938200A09368
:1006D0008300B093840060918C0070918D008091B4
:1006E0008E0090918F00D4D02FE632E143E85AE398
:1006F00035D1A2D060937D0070937E0080937F00FF
:100700009093800080917300813019F469DE10921B
:1007100073008091810090918200A0918300B0913C
:10072000840040917500509176006091770070913F
:100730007800841B950BA60BB70B883E9340A10550
:10074000B10508F4B4CF8091810090918200A0910E
:100750008300B09184008093750090937600A093FD
:100760007700B09378008091790090917A00988317
:100770008091790090917A00898380917D00909199
:100780007E00A0917F00B09180008B2F9927AA272F
:10079000BB278A8380917D0090917E00A0917F008D
:1007A000B09180008A2F8B8380917D0090917E0094
:1007B000A0917F00B0918000892F8C8380917D0073
:1007C00090917E00A0917F00B09180008D838091F8
:1007D000810090918200A0918300B09184008B2FC2
:1007E0009927AA27BB278E83809181009091820050
:1007F000A0918300B09184008A2F8F838091810023
:1008000090918200A0918300B0918400892F888705
:100810008091810090918200A0918300B09184002A
:100820008987809187008A8786B7856A86BF80918D
:1008300060008823E1F33BCF70D088F09F5790F0A1
:10084000B92F9927B751A0F0D1F0660F771F881FF5
:10085000991F1AF0BA95C9F712C0B13081F077D05C
:10086000B1E0089574C0672F782F8827B85F39F0FA
:10087000B93FCCF3869577956795B395D9F73EF454
:1008800090958095709561957F4F8F4F9F4F0895FC
:10089000E89409C097FB3EF490958095709561951A
:1008A0007F4F8F4F9F4F9923A9F0F92F96E9BB27D0
:1008B0009395F695879577956795B795F111F8CF4C
:1008C000FAF4BB0F11F460FF1BC06F5F7F4F8F4FB7
:1008D0009F4F16C0882311F096E911C0772321F0AD
:1008E0009EE8872F762F05C0662371F096E8862F45
:1008F00070E060E02AF09A95660F771F881FDAF79C
:10090000880F9695879597F9089557FD9058440F4D
:10091000551F59F05F3F71F04795880F97FB991F5E
:1009200061F09F3F79F0879508951216130614061B
:10093000551FF2CF4695F1DF08C0161617061806A8
:10094000991FF1CF86957105610508940895E89483
:10095000BB2766277727CB0197F908950BD078C07E
:1009600069D028F06ED018F0952309F05AC05FC006
:100970001124EECFCADFA0F3959FD1F3950F50E07D
:10098000551F629FF001729FBB27F00DB11D639F41
:10099000AA27F00DB11DAA1F649F6627B00DA11DE7
:1009A000661F829F2227B00DA11D621F739FB00D8D
:1009B000A11D621F839FA00D611D221F749F3327FD
:1009C000A00D611D231F849F600D211D822F762F96
:1009D0006A2F11249F5750408AF0E1F088234AF093
:1009E000EE0FFF1FBB1F661F771F881F91505040DF
:1009F000A9F79E3F510570F014C0AACF5F3FECF3FA
:100A0000983EDCF3869577956795B795F795E795CA
:100A10009F5FC1F7FE2B880F911D9695879597F9DB
:100A2000089597F99F6780E870E060E008959FEF70
:100A300080EC089500240A94161617061806090675
:100A4000089500240A941216130614060506089544
:100A5000092E0394000C11F4882352F0BB0F40F4CC
:100A6000BF2B11F460FF04C06F5F7F4F8F4F9F4F0C
:100A70000895A1E21A2EAA1BBB1BFD010DC0AA1FDF
:100A8000BB1FEE1FFF1FA217B307E407F50720F0F7
:100A9000A21BB30BE40BF50B661F771F881F991F72
:100AA0001A9469F760957095809590959B01AC01BB
:0A0AB000BD01CF010895F894FFCFB7
:100ABA0001446973743A004675656C3A006C69744E
:020ACA0000002A
:00000001FF
